{
  "contractName": "CappedLockableToken",
  "abi": [
    {
      "inputs": [],
      "stateMutability": "nonpayable",
      "type": "constructor"
    },
    {
      "anonymous": false,
      "inputs": [
        {
          "indexed": true,
          "internalType": "address",
          "name": "owner",
          "type": "address"
        },
        {
          "indexed": true,
          "internalType": "address",
          "name": "spender",
          "type": "address"
        },
        {
          "indexed": false,
          "internalType": "uint256",
          "name": "value",
          "type": "uint256"
        }
      ],
      "name": "Approval",
      "type": "event"
    },
    {
      "anonymous": false,
      "inputs": [
        {
          "indexed": false,
          "internalType": "address",
          "name": "updater",
          "type": "address"
        },
        {
          "indexed": false,
          "internalType": "uint256",
          "name": "newPrice",
          "type": "uint256"
        }
      ],
      "name": "Lot_Sell_Price_Changed",
      "type": "event"
    },
    {
      "anonymous": false,
      "inputs": [
        {
          "indexed": true,
          "internalType": "address",
          "name": "previousOwner",
          "type": "address"
        },
        {
          "indexed": true,
          "internalType": "address",
          "name": "newOwner",
          "type": "address"
        }
      ],
      "name": "OwnershipTransferred",
      "type": "event"
    },
    {
      "anonymous": false,
      "inputs": [
        {
          "indexed": true,
          "internalType": "address",
          "name": "from",
          "type": "address"
        },
        {
          "indexed": true,
          "internalType": "address",
          "name": "to",
          "type": "address"
        },
        {
          "indexed": false,
          "internalType": "uint256",
          "name": "value",
          "type": "uint256"
        }
      ],
      "name": "Transfer",
      "type": "event"
    },
    {
      "anonymous": false,
      "inputs": [
        {
          "indexed": false,
          "internalType": "string",
          "name": "info",
          "type": "string"
        },
        {
          "indexed": false,
          "internalType": "uint256",
          "name": "tokens_num",
          "type": "uint256"
        }
      ],
      "name": "tokenPending",
      "type": "event"
    },
    {
      "stateMutability": "payable",
      "type": "fallback",
      "payable": true
    },
    {
      "inputs": [],
      "name": "Lot_Sell_Price",
      "outputs": [
        {
          "internalType": "uint256",
          "name": "",
          "type": "uint256"
        }
      ],
      "stateMutability": "view",
      "type": "function",
      "constant": true
    },
    {
      "inputs": [],
      "name": "Token_Sale_Lot",
      "outputs": [
        {
          "internalType": "uint256",
          "name": "",
          "type": "uint256"
        }
      ],
      "stateMutability": "view",
      "type": "function",
      "constant": true
    },
    {
      "inputs": [],
      "name": "_Owner",
      "outputs": [
        {
          "internalType": "address",
          "name": "",
          "type": "address"
        }
      ],
      "stateMutability": "view",
      "type": "function",
      "constant": true
    },
    {
      "inputs": [],
      "name": "_cap",
      "outputs": [
        {
          "internalType": "uint256",
          "name": "",
          "type": "uint256"
        }
      ],
      "stateMutability": "view",
      "type": "function",
      "constant": true
    },
    {
      "inputs": [
        {
          "internalType": "address",
          "name": "owner",
          "type": "address"
        },
        {
          "internalType": "address",
          "name": "spender",
          "type": "address"
        }
      ],
      "name": "allowance",
      "outputs": [
        {
          "internalType": "uint256",
          "name": "",
          "type": "uint256"
        }
      ],
      "stateMutability": "view",
      "type": "function",
      "constant": true
    },
    {
      "inputs": [
        {
          "internalType": "address",
          "name": "spender",
          "type": "address"
        },
        {
          "internalType": "uint256",
          "name": "amount",
          "type": "uint256"
        }
      ],
      "name": "approve",
      "outputs": [
        {
          "internalType": "bool",
          "name": "",
          "type": "bool"
        }
      ],
      "stateMutability": "nonpayable",
      "type": "function"
    },
    {
      "inputs": [
        {
          "internalType": "address",
          "name": "account",
          "type": "address"
        }
      ],
      "name": "balanceOf",
      "outputs": [
        {
          "internalType": "uint256",
          "name": "",
          "type": "uint256"
        }
      ],
      "stateMutability": "view",
      "type": "function",
      "constant": true
    },
    {
      "inputs": [],
      "name": "decimals",
      "outputs": [
        {
          "internalType": "uint8",
          "name": "",
          "type": "uint8"
        }
      ],
      "stateMutability": "view",
      "type": "function",
      "constant": true
    },
    {
      "inputs": [
        {
          "internalType": "address",
          "name": "spender",
          "type": "address"
        },
        {
          "internalType": "uint256",
          "name": "subtractedValue",
          "type": "uint256"
        }
      ],
      "name": "decreaseAllowance",
      "outputs": [
        {
          "internalType": "bool",
          "name": "",
          "type": "bool"
        }
      ],
      "stateMutability": "nonpayable",
      "type": "function"
    },
    {
      "inputs": [
        {
          "internalType": "address",
          "name": "spender",
          "type": "address"
        },
        {
          "internalType": "uint256",
          "name": "addedValue",
          "type": "uint256"
        }
      ],
      "name": "increaseAllowance",
      "outputs": [
        {
          "internalType": "bool",
          "name": "",
          "type": "bool"
        }
      ],
      "stateMutability": "nonpayable",
      "type": "function"
    },
    {
      "inputs": [],
      "name": "initialSupply",
      "outputs": [
        {
          "internalType": "uint256",
          "name": "",
          "type": "uint256"
        }
      ],
      "stateMutability": "view",
      "type": "function",
      "constant": true
    },
    {
      "inputs": [],
      "name": "name",
      "outputs": [
        {
          "internalType": "string",
          "name": "",
          "type": "string"
        }
      ],
      "stateMutability": "view",
      "type": "function",
      "constant": true
    },
    {
      "inputs": [],
      "name": "owner",
      "outputs": [
        {
          "internalType": "address",
          "name": "",
          "type": "address"
        }
      ],
      "stateMutability": "view",
      "type": "function",
      "constant": true
    },
    {
      "inputs": [],
      "name": "releaseTime",
      "outputs": [
        {
          "internalType": "uint256",
          "name": "",
          "type": "uint256"
        }
      ],
      "stateMutability": "view",
      "type": "function",
      "constant": true
    },
    {
      "inputs": [],
      "name": "renounceOwnership",
      "outputs": [],
      "stateMutability": "nonpayable",
      "type": "function"
    },
    {
      "inputs": [],
      "name": "symbol",
      "outputs": [
        {
          "internalType": "string",
          "name": "",
          "type": "string"
        }
      ],
      "stateMutability": "view",
      "type": "function",
      "constant": true
    },
    {
      "inputs": [],
      "name": "totalSupply",
      "outputs": [
        {
          "internalType": "uint256",
          "name": "",
          "type": "uint256"
        }
      ],
      "stateMutability": "view",
      "type": "function",
      "constant": true
    },
    {
      "inputs": [
        {
          "internalType": "address",
          "name": "sender",
          "type": "address"
        },
        {
          "internalType": "address",
          "name": "recipient",
          "type": "address"
        },
        {
          "internalType": "uint256",
          "name": "amount",
          "type": "uint256"
        }
      ],
      "name": "transferFrom",
      "outputs": [
        {
          "internalType": "bool",
          "name": "",
          "type": "bool"
        }
      ],
      "stateMutability": "nonpayable",
      "type": "function"
    },
    {
      "inputs": [
        {
          "internalType": "address",
          "name": "newOwner",
          "type": "address"
        }
      ],
      "name": "transferOwnership",
      "outputs": [],
      "stateMutability": "nonpayable",
      "type": "function"
    },
    {
      "stateMutability": "payable",
      "type": "receive",
      "payable": true
    },
    {
      "inputs": [
        {
          "internalType": "address",
          "name": "account",
          "type": "address"
        },
        {
          "internalType": "uint256",
          "name": "_Tokens",
          "type": "uint256"
        }
      ],
      "name": "generateToken",
      "outputs": [],
      "stateMutability": "nonpayable",
      "type": "function"
    },
    {
      "inputs": [],
      "name": "buyToken",
      "outputs": [],
      "stateMutability": "payable",
      "type": "function",
      "payable": true
    },
    {
      "inputs": [
        {
          "internalType": "address",
          "name": "beneficiary",
          "type": "address"
        },
        {
          "internalType": "uint256",
          "name": "lockedTokens",
          "type": "uint256"
        }
      ],
      "name": "transfer",
      "outputs": [
        {
          "internalType": "bool",
          "name": "",
          "type": "bool"
        }
      ],
      "stateMutability": "nonpayable",
      "type": "function"
    },
    {
      "inputs": [
        {
          "internalType": "uint256",
          "name": "_newListPrice",
          "type": "uint256"
        }
      ],
      "name": "changeListPrice",
      "outputs": [],
      "stateMutability": "nonpayable",
      "type": "function"
    },
    {
      "inputs": [],
      "name": "getEtherBalCon",
      "outputs": [
        {
          "internalType": "uint256",
          "name": "",
          "type": "uint256"
        }
      ],
      "stateMutability": "view",
      "type": "function",
      "constant": true
    }
  ],
  "bytecode": "0x60806040523480156200001157600080fd5b506040518060400160405280600e81526020017f436170204c6f636b20546f6b656e0000000000000000000000000000000000008152506040518060400160405280600381526020017f434c540000000000000000000000000000000000000000000000000000000000815250816003908051906020019062000096929190620004d4565b508060049080519060200190620000af929190620004d4565b505050620000d2620000c66200025860201b60201c565b6200026060201b60201c565b620000e26200032660201b60201c565b60ff16600a620000f39190620006c4565b6207a12062000103919062000801565b60078190555062000127614e206007546200032f60201b6200122a1790919060201c565b60068190555062278d00426200013e91906200060c565b60088190555033600c60006101000a81548173ffffffffffffffffffffffffffffffffffffffff021916908373ffffffffffffffffffffffffffffffffffffffff16021790555062000199336007546200034760201b60201c565b620001a9620004c060201b60201c565b600d6000600c60009054906101000a900473ffffffffffffffffffffffffffffffffffffffff1673ffffffffffffffffffffffffffffffffffffffff1673ffffffffffffffffffffffffffffffffffffffff168152602001908152602001600020819055506200021e6200032660201b60201c565b60ff16600a6200022f9190620006c4565b60646200023d919062000801565b600981905550670de0b6b3a7640000600a8190555062000936565b600033905090565b6000600560009054906101000a900473ffffffffffffffffffffffffffffffffffffffff16905081600560006101000a81548173ffffffffffffffffffffffffffffffffffffffff021916908373ffffffffffffffffffffffffffffffffffffffff1602179055508173ffffffffffffffffffffffffffffffffffffffff168173ffffffffffffffffffffffffffffffffffffffff167f8be0079c531659141344cd1fd0a4f28419497f9722a3daafe3b4186f6b6457e060405160405180910390a35050565b60006012905090565b600081836200033f919062000801565b905092915050565b600073ffffffffffffffffffffffffffffffffffffffff168273ffffffffffffffffffffffffffffffffffffffff161415620003ba576040517f08c379a0000000000000000000000000000000000000000000000000000000008152600401620003b190620005bc565b60405180910390fd5b620003ce60008383620004ca60201b60201c565b8060026000828254620003e291906200060c565b92505081905550806000808473ffffffffffffffffffffffffffffffffffffffff1673ffffffffffffffffffffffffffffffffffffffff16815260200190815260200160002060008282546200043991906200060c565b925050819055508173ffffffffffffffffffffffffffffffffffffffff16600073ffffffffffffffffffffffffffffffffffffffff167fddf252ad1be2c89b69c2b068fc378daa952ba7f163c4a11628f55a4df523b3ef83604051620004a09190620005de565b60405180910390a3620004bc60008383620004cf60201b60201c565b5050565b6000600254905090565b505050565b505050565b828054620004e2906200086c565b90600052602060002090601f01602090048101928262000506576000855562000552565b82601f106200052157805160ff191683800117855562000552565b8280016001018555821562000552579182015b828111156200055157825182559160200191906001019062000534565b5b50905062000561919062000565565b5090565b5b808211156200058057600081600090555060010162000566565b5090565b600062000593601f83620005fb565b9150620005a0826200090d565b602082019050919050565b620005b68162000862565b82525050565b60006020820190508181036000830152620005d78162000584565b9050919050565b6000602082019050620005f56000830184620005ab565b92915050565b600082825260208201905092915050565b6000620006198262000862565b9150620006268362000862565b9250827fffffffffffffffffffffffffffffffffffffffffffffffffffffffffffffffff038211156200065e576200065d620008a2565b5b828201905092915050565b6000808291508390505b6001851115620006bb57808604811115620006935762000692620008a2565b5b6001851615620006a35780820291505b8081029050620006b38562000900565b945062000673565b94509492505050565b6000620006d18262000862565b9150620006de8362000862565b92506200070d7fffffffffffffffffffffffffffffffffffffffffffffffffffffffffffffffff848462000715565b905092915050565b600082620007275760019050620007fa565b81620007375760009050620007fa565b81600181146200075057600281146200075b5762000791565b6001915050620007fa565b60ff84111562000770576200076f620008a2565b5b8360020a9150848211156200078a5762000789620008a2565b5b50620007fa565b5060208310610133831016604e8410600b8410161715620007cb5782820a905083811115620007c557620007c4620008a2565b5b620007fa565b620007da848484600162000669565b92509050818404811115620007f457620007f3620008a2565b5b81810290505b9392505050565b60006200080e8262000862565b91506200081b8362000862565b9250817fffffffffffffffffffffffffffffffffffffffffffffffffffffffffffffffff0483118215151615620008575762000856620008a2565b5b828202905092915050565b6000819050919050565b600060028204905060018216806200088557607f821691505b602082108114156200089c576200089b620008d1565b5b50919050565b7f4e487b7100000000000000000000000000000000000000000000000000000000600052601160045260246000fd5b7f4e487b7100000000000000000000000000000000000000000000000000000000600052602260045260246000fd5b60008160011c9050919050565b7f45524332303a206d696e7420746f20746865207a65726f206164647265737300600082015250565b61285c80620009466000396000f3fe60806040526004361061014f5760003560e01c80638da5cb5b116100b6578063b60c55821161006f578063b60c558214610499578063b91d4001146104c4578063dcc23455146104ef578063dd62ed3e1461051a578063ddb35c2e14610557578063f2fde38b1461058257610156565b80638da5cb5b1461039457806395d89b41146103bf5780639f2dd2b3146103ea578063a457c2d714610415578063a482171914610452578063a9059cbb1461045c57610156565b8063313ce56711610108578063313ce567146102845780633512ae99146102af578063378dc3dc146102d8578063395093511461030357806370a0823114610340578063715018a61461037d57610156565b8063060cf4e81461016057806306fdde031461018b578063095ea7b3146101b657806318160ddd146101f3578063188b53721461021e57806323b872dd1461024757610156565b3661015657005b61015e6105ab565b005b34801561016c57600080fd5b50610175610789565b604051610182919061204e565b60405180910390f35b34801561019757600080fd5b506101a061078f565b6040516101ad9190611dbe565b60405180910390f35b3480156101c257600080fd5b506101dd60048036038101906101d891906119ec565b610821565b6040516101ea9190611da3565b60405180910390f35b3480156101ff57600080fd5b5061020861083f565b604051610215919061204e565b60405180910390f35b34801561022a57600080fd5b50610245600480360381019061024091906119ec565b610849565b005b34801561025357600080fd5b5061026e6004803603810190610269919061199d565b6109e4565b60405161027b9190611da3565b60405180910390f35b34801561029057600080fd5b50610299610adc565b6040516102a69190612069565b60405180910390f35b3480156102bb57600080fd5b506102d660048036038101906102d19190611a28565b610ae5565b005b3480156102e457600080fd5b506102ed610ba4565b6040516102fa919061204e565b60405180910390f35b34801561030f57600080fd5b5061032a600480360381019061032591906119ec565b610baa565b6040516103379190611da3565b60405180910390f35b34801561034c57600080fd5b5061036760048036038101906103629190611938565b610c56565b604051610374919061204e565b60405180910390f35b34801561038957600080fd5b50610392610c9e565b005b3480156103a057600080fd5b506103a9610d26565b6040516103b69190611d5f565b60405180910390f35b3480156103cb57600080fd5b506103d4610d50565b6040516103e19190611dbe565b60405180910390f35b3480156103f657600080fd5b506103ff610de2565b60405161040c919061204e565b60405180910390f35b34801561042157600080fd5b5061043c600480360381019061043791906119ec565b610de8565b6040516104499190611da3565b60405180910390f35b61045a6105ab565b005b34801561046857600080fd5b50610483600480360381019061047e91906119ec565b610ed3565b6040516104909190611da3565b60405180910390f35b3480156104a557600080fd5b506104ae611071565b6040516104bb919061204e565b60405180910390f35b3480156104d057600080fd5b506104d9611079565b6040516104e6919061204e565b60405180910390f35b3480156104fb57600080fd5b5061050461107f565b6040516105119190611d5f565b60405180910390f35b34801561052657600080fd5b50610541600480360381019061053c9190611961565b6110a5565b60405161054e919061204e565b60405180910390f35b34801561056357600080fd5b5061056c61112c565b604051610579919061204e565b60405180910390f35b34801561058e57600080fd5b506105a960048036038101906105a49190611938565b611132565b005b6000600a54116105f0576040517f08c379a00000000000000000000000000000000000000000000000000000000081526004016105e790611f8e565b60405180910390fd5b60003411610633576040517f08c379a000000000000000000000000000000000000000000000000000000000815260040161062a90611fae565b60405180910390fd5b61065c600a5461064e6009543461122a90919063ffffffff16565b61124090919063ffffffff16565b600b81905550600d6000600c60009054906101000a900473ffffffffffffffffffffffffffffffffffffffff1673ffffffffffffffffffffffffffffffffffffffff1673ffffffffffffffffffffffffffffffffffffffff16815260200190815260200160002054600b541115610708576040517f08c379a00000000000000000000000000000000000000000000000000000000081526004016106ff90611f20565b60405180910390fd5b600b54600e60003373ffffffffffffffffffffffffffffffffffffffff1673ffffffffffffffffffffffffffffffffffffffff168152602001908152602001600020819055507f30d30425d442bfda291e49ab863cea61cc53d05dc79fcfe289f7346d9292166c600b5460405161077f9190611f40565b60405180910390a1565b60065481565b60606003805461079e90612209565b80601f01602080910402602001604051908101604052809291908181526020018280546107ca90612209565b80156108175780601f106107ec57610100808354040283529160200191610817565b820191906000526020600020905b8154815290600101906020018083116107fa57829003601f168201915b5050505050905090565b600061083561082e611256565b848461125e565b6001905092915050565b6000600254905090565b610851611256565b73ffffffffffffffffffffffffffffffffffffffff1661086f610d26565b73ffffffffffffffffffffffffffffffffffffffff16146108c5576040517f08c379a00000000000000000000000000000000000000000000000000000000081526004016108bc90611f00565b60405180910390fd5b600073ffffffffffffffffffffffffffffffffffffffff168273ffffffffffffffffffffffffffffffffffffffff161415610935576040517f08c379a000000000000000000000000000000000000000000000000000000000815260040161092c90611ec0565b60405180910390fd5b60008111610978576040517f08c379a000000000000000000000000000000000000000000000000000000000815260040161096f90611e60565b60405180910390fd5b6006546109958261098761083f565b61142990919063ffffffff16565b11156109d6576040517f08c379a00000000000000000000000000000000000000000000000000000000081526004016109cd90611ea0565b60405180910390fd5b6109e0828261143f565b5050565b60006109f184848461159f565b6000600160008673ffffffffffffffffffffffffffffffffffffffff1673ffffffffffffffffffffffffffffffffffffffff1681526020019081526020016000206000610a3c611256565b73ffffffffffffffffffffffffffffffffffffffff1673ffffffffffffffffffffffffffffffffffffffff16815260200190815260200160002054905082811015610abc576040517f08c379a0000000000000000000000000000000000000000000000000000000008152600401610ab390611ee0565b60405180910390fd5b610ad085610ac8611256565b85840361125e565b60019150509392505050565b60006012905090565b610aed611256565b73ffffffffffffffffffffffffffffffffffffffff16610b0b610d26565b73ffffffffffffffffffffffffffffffffffffffff1614610b61576040517f08c379a0000000000000000000000000000000000000000000000000000000008152600401610b5890611f00565b60405180910390fd5b80600a819055507f94daae3365be9f925df3bdd5fe56d5055a6c8bb9b80c838e586e85168c2ce6c63382604051610b99929190611d7a565b60405180910390a150565b60075481565b6000610c4c610bb7611256565b848460016000610bc5611256565b73ffffffffffffffffffffffffffffffffffffffff1673ffffffffffffffffffffffffffffffffffffffff16815260200190815260200160002060008873ffffffffffffffffffffffffffffffffffffffff1673ffffffffffffffffffffffffffffffffffffffff16815260200190815260200160002054610c4791906120a0565b61125e565b6001905092915050565b60008060008373ffffffffffffffffffffffffffffffffffffffff1673ffffffffffffffffffffffffffffffffffffffff168152602001908152602001600020549050919050565b610ca6611256565b73ffffffffffffffffffffffffffffffffffffffff16610cc4610d26565b73ffffffffffffffffffffffffffffffffffffffff1614610d1a576040517f08c379a0000000000000000000000000000000000000000000000000000000008152600401610d1190611f00565b60405180910390fd5b610d246000611820565b565b6000600560009054906101000a900473ffffffffffffffffffffffffffffffffffffffff16905090565b606060048054610d5f90612209565b80601f0160208091040260200160405190810160405280929190818152602001828054610d8b90612209565b8015610dd85780601f10610dad57610100808354040283529160200191610dd8565b820191906000526020600020905b815481529060010190602001808311610dbb57829003601f168201915b5050505050905090565b60095481565b60008060016000610df7611256565b73ffffffffffffffffffffffffffffffffffffffff1673ffffffffffffffffffffffffffffffffffffffff16815260200190815260200160002060008573ffffffffffffffffffffffffffffffffffffffff1673ffffffffffffffffffffffffffffffffffffffff16815260200190815260200160002054905082811015610eb4576040517f08c379a0000000000000000000000000000000000000000000000000000000008152600401610eab9061200e565b60405180910390fd5b610ec8610ebf611256565b8585840361125e565b600191505092915050565b6000610edd611256565b73ffffffffffffffffffffffffffffffffffffffff16610efb610d26565b73ffffffffffffffffffffffffffffffffffffffff1614610f51576040517f08c379a0000000000000000000000000000000000000000000000000000000008152600401610f4890611f00565b60405180910390fd5b600e60008473ffffffffffffffffffffffffffffffffffffffff1673ffffffffffffffffffffffffffffffffffffffff168152602001908152602001600020548214610fd2576040517f08c379a0000000000000000000000000000000000000000000000000000000008152600401610fc990611fce565b60405180910390fd5b600854421015611017576040517f08c379a000000000000000000000000000000000000000000000000000000000815260040161100e90611e40565b60405180910390fd5b6000600e60008573ffffffffffffffffffffffffffffffffffffffff1673ffffffffffffffffffffffffffffffffffffffff1681526020019081526020016000208190555061106683836118e6565b506001905092915050565b600047905090565b60085481565b600c60009054906101000a900473ffffffffffffffffffffffffffffffffffffffff1681565b6000600160008473ffffffffffffffffffffffffffffffffffffffff1673ffffffffffffffffffffffffffffffffffffffff16815260200190815260200160002060008373ffffffffffffffffffffffffffffffffffffffff1673ffffffffffffffffffffffffffffffffffffffff16815260200190815260200160002054905092915050565b600a5481565b61113a611256565b73ffffffffffffffffffffffffffffffffffffffff16611158610d26565b73ffffffffffffffffffffffffffffffffffffffff16146111ae576040517f08c379a00000000000000000000000000000000000000000000000000000000081526004016111a590611f00565b60405180910390fd5b600073ffffffffffffffffffffffffffffffffffffffff168173ffffffffffffffffffffffffffffffffffffffff16141561121e576040517f08c379a000000000000000000000000000000000000000000000000000000000815260040161121590611e00565b60405180910390fd5b61122781611820565b50565b600081836112389190612127565b905092915050565b6000818361124e91906120f6565b905092915050565b600033905090565b600073ffffffffffffffffffffffffffffffffffffffff168373ffffffffffffffffffffffffffffffffffffffff1614156112ce576040517f08c379a00000000000000000000000000000000000000000000000000000000081526004016112c590611fee565b60405180910390fd5b600073ffffffffffffffffffffffffffffffffffffffff168273ffffffffffffffffffffffffffffffffffffffff16141561133e576040517f08c379a000000000000000000000000000000000000000000000000000000000815260040161133590611e20565b60405180910390fd5b80600160008573ffffffffffffffffffffffffffffffffffffffff1673ffffffffffffffffffffffffffffffffffffffff16815260200190815260200160002060008473ffffffffffffffffffffffffffffffffffffffff1673ffffffffffffffffffffffffffffffffffffffff168152602001908152602001600020819055508173ffffffffffffffffffffffffffffffffffffffff168373ffffffffffffffffffffffffffffffffffffffff167f8c5be1e5ebec7d5bd14f71427d1e84f3dd0314c0f7b2291e5b200ac8c7c3b9258360405161141c919061204e565b60405180910390a3505050565b6000818361143791906120a0565b905092915050565b600073ffffffffffffffffffffffffffffffffffffffff168273ffffffffffffffffffffffffffffffffffffffff1614156114af576040517f08c379a00000000000000000000000000000000000000000000000000000000081526004016114a69061202e565b60405180910390fd5b6114bb60008383611904565b80600260008282546114cd91906120a0565b92505081905550806000808473ffffffffffffffffffffffffffffffffffffffff1673ffffffffffffffffffffffffffffffffffffffff168152602001908152602001600020600082825461152291906120a0565b925050819055508173ffffffffffffffffffffffffffffffffffffffff16600073ffffffffffffffffffffffffffffffffffffffff167fddf252ad1be2c89b69c2b068fc378daa952ba7f163c4a11628f55a4df523b3ef83604051611587919061204e565b60405180910390a361159b60008383611909565b5050565b600073ffffffffffffffffffffffffffffffffffffffff168373ffffffffffffffffffffffffffffffffffffffff16141561160f576040517f08c379a000000000000000000000000000000000000000000000000000000000815260040161160690611f6e565b60405180910390fd5b600073ffffffffffffffffffffffffffffffffffffffff168273ffffffffffffffffffffffffffffffffffffffff16141561167f576040517f08c379a000000000000000000000000000000000000000000000000000000000815260040161167690611de0565b60405180910390fd5b61168a838383611904565b60008060008573ffffffffffffffffffffffffffffffffffffffff1673ffffffffffffffffffffffffffffffffffffffff16815260200190815260200160002054905081811015611710576040517f08c379a000000000000000000000000000000000000000000000000000000000815260040161170790611e80565b60405180910390fd5b8181036000808673ffffffffffffffffffffffffffffffffffffffff1673ffffffffffffffffffffffffffffffffffffffff16815260200190815260200160002081905550816000808573ffffffffffffffffffffffffffffffffffffffff1673ffffffffffffffffffffffffffffffffffffffff16815260200190815260200160002060008282546117a391906120a0565b925050819055508273ffffffffffffffffffffffffffffffffffffffff168473ffffffffffffffffffffffffffffffffffffffff167fddf252ad1be2c89b69c2b068fc378daa952ba7f163c4a11628f55a4df523b3ef84604051611807919061204e565b60405180910390a361181a848484611909565b50505050565b6000600560009054906101000a900473ffffffffffffffffffffffffffffffffffffffff16905081600560006101000a81548173ffffffffffffffffffffffffffffffffffffffff021916908373ffffffffffffffffffffffffffffffffffffffff1602179055508173ffffffffffffffffffffffffffffffffffffffff168173ffffffffffffffffffffffffffffffffffffffff167f8be0079c531659141344cd1fd0a4f28419497f9722a3daafe3b4186f6b6457e060405160405180910390a35050565b60006118fa6118f3611256565b848461159f565b6001905092915050565b505050565b505050565b60008135905061191d816127f8565b92915050565b6000813590506119328161280f565b92915050565b60006020828403121561194a57600080fd5b60006119588482850161190e565b91505092915050565b6000806040838503121561197457600080fd5b60006119828582860161190e565b92505060206119938582860161190e565b9150509250929050565b6000806000606084860312156119b257600080fd5b60006119c08682870161190e565b93505060206119d18682870161190e565b92505060406119e286828701611923565b9150509250925092565b600080604083850312156119ff57600080fd5b6000611a0d8582860161190e565b9250506020611a1e85828601611923565b9150509250929050565b600060208284031215611a3a57600080fd5b6000611a4884828501611923565b91505092915050565b611a5a81612181565b82525050565b611a6981612193565b82525050565b6000611a7a82612084565b611a84818561208f565b9350611a948185602086016121d6565b611a9d816122c8565b840191505092915050565b6000611ab560238361208f565b9150611ac0826122d9565b604082019050919050565b6000611ad860268361208f565b9150611ae382612328565b604082019050919050565b6000611afb60228361208f565b9150611b0682612377565b604082019050919050565b6000611b1e60318361208f565b9150611b29826123c6565b604082019050919050565b6000611b41600e8361208f565b9150611b4c82612415565b602082019050919050565b6000611b6460268361208f565b9150611b6f8261243e565b604082019050919050565b6000611b8760408361208f565b9150611b928261248d565b604082019050919050565b6000611baa60158361208f565b9150611bb5826124dc565b602082019050919050565b6000611bcd60288361208f565b9150611bd882612505565b604082019050919050565b6000611bf060208361208f565b9150611bfb82612554565b602082019050919050565b6000611c1360308361208f565b9150611c1e8261257d565b604082019050919050565b6000611c3660488361208f565b9150611c41826125cc565b606082019050919050565b6000611c5960258361208f565b9150611c6482612641565b604082019050919050565b6000611c7c601f8361208f565b9150611c8782612690565b602082019050919050565b6000611c9f60208361208f565b9150611caa826126b9565b602082019050919050565b6000611cc2602d8361208f565b9150611ccd826126e2565b604082019050919050565b6000611ce560248361208f565b9150611cf082612731565b604082019050919050565b6000611d0860258361208f565b9150611d1382612780565b604082019050919050565b6000611d2b601f8361208f565b9150611d36826127cf565b602082019050919050565b611d4a816121bf565b82525050565b611d59816121c9565b82525050565b6000602082019050611d746000830184611a51565b92915050565b6000604082019050611d8f6000830185611a51565b611d9c6020830184611d41565b9392505050565b6000602082019050611db86000830184611a60565b92915050565b60006020820190508181036000830152611dd88184611a6f565b905092915050565b60006020820190508181036000830152611df981611aa8565b9050919050565b60006020820190508181036000830152611e1981611acb565b9050919050565b60006020820190508181036000830152611e3981611aee565b9050919050565b60006020820190508181036000830152611e5981611b11565b9050919050565b60006020820190508181036000830152611e7981611b34565b9050919050565b60006020820190508181036000830152611e9981611b57565b9050919050565b60006020820190508181036000830152611eb981611b7a565b9050919050565b60006020820190508181036000830152611ed981611b9d565b9050919050565b60006020820190508181036000830152611ef981611bc0565b9050919050565b60006020820190508181036000830152611f1981611be3565b9050919050565b60006020820190508181036000830152611f3981611c06565b9050919050565b60006040820190508181036000830152611f5981611c29565b9050611f686020830184611d41565b92915050565b60006020820190508181036000830152611f8781611c4c565b9050919050565b60006020820190508181036000830152611fa781611c6f565b9050919050565b60006020820190508181036000830152611fc781611c92565b9050919050565b60006020820190508181036000830152611fe781611cb5565b9050919050565b6000602082019050818103600083015261200781611cd8565b9050919050565b6000602082019050818103600083015261202781611cfb565b9050919050565b6000602082019050818103600083015261204781611d1e565b9050919050565b60006020820190506120636000830184611d41565b92915050565b600060208201905061207e6000830184611d50565b92915050565b600081519050919050565b600082825260208201905092915050565b60006120ab826121bf565b91506120b6836121bf565b9250827fffffffffffffffffffffffffffffffffffffffffffffffffffffffffffffffff038211156120eb576120ea61223b565b5b828201905092915050565b6000612101826121bf565b915061210c836121bf565b92508261211c5761211b61226a565b5b828204905092915050565b6000612132826121bf565b915061213d836121bf565b9250817fffffffffffffffffffffffffffffffffffffffffffffffffffffffffffffffff04831182151516156121765761217561223b565b5b828202905092915050565b600061218c8261219f565b9050919050565b60008115159050919050565b600073ffffffffffffffffffffffffffffffffffffffff82169050919050565b6000819050919050565b600060ff82169050919050565b60005b838110156121f45780820151818401526020810190506121d9565b83811115612203576000848401525b50505050565b6000600282049050600182168061222157607f821691505b6020821081141561223557612234612299565b5b50919050565b7f4e487b7100000000000000000000000000000000000000000000000000000000600052601160045260246000fd5b7f4e487b7100000000000000000000000000000000000000000000000000000000600052601260045260246000fd5b7f4e487b7100000000000000000000000000000000000000000000000000000000600052602260045260246000fd5b6000601f19601f8301169050919050565b7f45524332303a207472616e7366657220746f20746865207a65726f206164647260008201527f6573730000000000000000000000000000000000000000000000000000000000602082015250565b7f4f776e61626c653a206e6577206f776e657220697320746865207a65726f206160008201527f6464726573730000000000000000000000000000000000000000000000000000602082015250565b7f45524332303a20617070726f766520746f20746865207a65726f20616464726560008201527f7373000000000000000000000000000000000000000000000000000000000000602082015250565b7f546f6b656e2069732074696d65206c6f636b6564206f72206e6f2070656e646960008201527f6e6720746f6b656e20746f206973737565000000000000000000000000000000602082015250565b7f496e76616c696420616d6f756e74000000000000000000000000000000000000600082015250565b7f45524332303a207472616e7366657220616d6f756e742065786365656473206260008201527f616c616e63650000000000000000000000000000000000000000000000000000602082015250565b7f4f7665726c696d69743a20616d6f756e7420657863656564656420636170706560008201527f642076616c75652c20546f6b656e2067656e65726174696f6e206661696c6564602082015250565b7f496e76616c6964207a65726f2061646472657373210000000000000000000000600082015250565b7f45524332303a207472616e7366657220616d6f756e742065786365656473206160008201527f6c6c6f77616e6365000000000000000000000000000000000000000000000000602082015250565b7f4f776e61626c653a2063616c6c6572206973206e6f7420746865206f776e6572600082015250565b7f4e6f7420656e6f75676820746f6b656e7320746f2073656c6c2c207265706f7260008201527f7420697373756520746f206f776e657200000000000000000000000000000000602082015250565b7f596f757220746f6b656e73206172652074696d65206c6f636b65642c2074686f60008201527f75676820796f75206861766520707572636861656420746f74616c20434c542060208201527f746f6b656e733a20000000000000000000000000000000000000000000000000604082015250565b7f45524332303a207472616e736665722066726f6d20746865207a65726f20616460008201527f6472657373000000000000000000000000000000000000000000000000000000602082015250565b7f496e76616c69642073656c6c207072696365206465636c61726174696f6e2100600082015250565b7f496e73756666696369656e742066756e647320746f2062757920546f6b656e73600082015250565b7f506c6561736520656e74657220636f7272656374206e756d626572206f66206c60008201527f6f636b656420746f6b656e732e00000000000000000000000000000000000000602082015250565b7f45524332303a20617070726f76652066726f6d20746865207a65726f2061646460008201527f7265737300000000000000000000000000000000000000000000000000000000602082015250565b7f45524332303a2064656372656173656420616c6c6f77616e63652062656c6f7760008201527f207a65726f000000000000000000000000000000000000000000000000000000602082015250565b7f45524332303a206d696e7420746f20746865207a65726f206164647265737300600082015250565b61280181612181565b811461280c57600080fd5b50565b612818816121bf565b811461282357600080fd5b5056fea2646970667358221220e9dccffe7761cbf01c6522ac086619fa84564ceb9cde0a175ac3cf0963e8dc4d64736f6c63430008040033",
  "immutableReferences": {},
  "source": "pragma solidity ^0.8.0;\r\n//\"SPDX-License-Identifier: UNLICENSED\"\r\n\r\nimport \"@OpenZeppelin/contracts/utils/math/SafeMath.sol\";\r\nimport \"@OpenZeppelin/contracts/token/ERC20/ERC20.sol\";\r\nimport \"@OpenZeppelin/contracts/access/Ownable.sol\";\r\n\r\ncontract CappedLockableToken is ERC20, Ownable {\r\n    \r\n    using SafeMath for uint256;\r\n\r\n    uint256 public _cap;\r\n    uint256 public initialSupply;\r\n    uint256 public releaseTime;\r\n    uint256  public Token_Sale_Lot; \r\n    uint256  public Lot_Sell_Price;\r\n    uint256 internal numToken;\r\n    address public _Owner;\r\n    \r\n    mapping(address => uint256) private _balances;\r\n    mapping(address => uint256) private _balances_onHold;\r\n    event Lot_Sell_Price_Changed(address updater, uint256 newPrice);\r\n    event tokenPending(string info, uint256 tokens_num );\r\n    \r\n    constructor() ERC20(\"Cap Lock Token\", \"CLT\") {\r\n        initialSupply = 500000 * (10**uint256(decimals()));\r\n        _cap = initialSupply.mul(20000);\r\n        releaseTime = block.timestamp + 30 days;\r\n        _Owner = msg.sender;\r\n        _mint(msg.sender, initialSupply); \r\n        _balances[_Owner] = totalSupply();\r\n        Token_Sale_Lot = 100 * (10**uint256(decimals()));\r\n        Lot_Sell_Price = 1000000000000000000  wei;\r\n    }\r\n    \r\n    function generateToken(address account, uint256 _Tokens) public onlyOwner {\r\n        require(account != address(0), \"Invalid zero address!\");\r\n        require(_Tokens > 0, \"Invalid amount\");\r\n        require(totalSupply().add(_Tokens) <= _cap, \"Overlimit: amount exceeded capped value, Token generation failed\");\r\n        _mint(account,_Tokens);\r\n    }\r\n    \r\n    //Assumption:The buyer will buy the token only once during token hold period\r\n    \r\n    function buyToken () public payable {\r\n\r\n        require(Lot_Sell_Price > 0,\"Invalid sell price declaration!\");\r\n        require(msg.value > 0, \"Insufficient funds to buy Tokens\");\r\n        \r\n        numToken = (msg.value.mul(Token_Sale_Lot)).div(Lot_Sell_Price);\r\n        require(numToken <= _balances[_Owner],\"Not enough tokens to sell, report issue to owner\");\r\n       _balances_onHold[msg.sender] = numToken;\r\n       emit tokenPending(\"Your tokens are time locked, though you have purchaed total CLT tokens: \", numToken);\r\n        \r\n    }\r\n      //Assumption:The buyer will buy the token only once during token hold period - this is assumed to avoid complexity \r\n      \r\n    function transfer(address beneficiary, uint256 lockedTokens) public  onlyOwner virtual override returns (bool) {\r\n        require(lockedTokens == _balances_onHold[beneficiary], \"Please enter correct number of locked tokens.\");\r\n        require(block.timestamp >= releaseTime, \"Token is time locked or no pending token to issue\");\r\n        _balances_onHold[beneficiary] = 0;\r\n        super.transfer(beneficiary, lockedTokens);\r\n        return true;\r\n    }\r\n  \r\n     // to collect ether recived on contract's address\r\n    receive() external payable { \r\n        \r\n    }\r\n    \r\n    function changeListPrice(uint256 _newListPrice) public onlyOwner{\r\n\t    Lot_Sell_Price = _newListPrice;\r\n\t    \r\n\t    emit Lot_Sell_Price_Changed(msg.sender, _newListPrice);\r\n\t}\r\n\r\n    fallback() payable external{\r\n        buyToken ();\r\n        \r\n    }\r\n    \r\n    // to check current ether total balance of the contract\r\n    function getEtherBalCon() public view returns (uint256) {\r\n        return address(this).balance;\r\n    }\r\n    \r\n//\r\n//address(this).transfer(int amount);\r\n}\r\n    \r\n    \r\n   \r\n\r\n    \r\n    \r\n   \r\n\r\n    \r\n    \r\n   \r\n\r\n    \r\n    \r\n    \r\n",
  "sourcePath": "D:/My Documents New/DL ML BC CC/BCC Q3/Assignment/Capped_Locked_ERC20_Token/contracts/CappedLockableToken.sol",
  "compiler": {
    "name": "solc",
    "version": "0.8.4+commit.c7e474f2.Emscripten.clang"
  },
  "schemaVersion": "3.4.0",
  "updatedAt": "2021-08-29T22:04:07.278Z",
  "networkType": "ethereum",
  "devdoc": {
    "kind": "dev",
    "methods": {
      "allowance(address,address)": {
        "details": "See {IERC20-allowance}."
      },
      "approve(address,uint256)": {
        "details": "See {IERC20-approve}. Requirements: - `spender` cannot be the zero address."
      },
      "balanceOf(address)": {
        "details": "See {IERC20-balanceOf}."
      },
      "decimals()": {
        "details": "Returns the number of decimals used to get its user representation. For example, if `decimals` equals `2`, a balance of `505` tokens should be displayed to a user as `5.05` (`505 / 10 ** 2`). Tokens usually opt for a value of 18, imitating the relationship between Ether and Wei. This is the value {ERC20} uses, unless this function is overridden; NOTE: This information is only used for _display_ purposes: it in no way affects any of the arithmetic of the contract, including {IERC20-balanceOf} and {IERC20-transfer}."
      },
      "decreaseAllowance(address,uint256)": {
        "details": "Atomically decreases the allowance granted to `spender` by the caller. This is an alternative to {approve} that can be used as a mitigation for problems described in {IERC20-approve}. Emits an {Approval} event indicating the updated allowance. Requirements: - `spender` cannot be the zero address. - `spender` must have allowance for the caller of at least `subtractedValue`."
      },
      "increaseAllowance(address,uint256)": {
        "details": "Atomically increases the allowance granted to `spender` by the caller. This is an alternative to {approve} that can be used as a mitigation for problems described in {IERC20-approve}. Emits an {Approval} event indicating the updated allowance. Requirements: - `spender` cannot be the zero address."
      },
      "name()": {
        "details": "Returns the name of the token."
      },
      "owner()": {
        "details": "Returns the address of the current owner."
      },
      "renounceOwnership()": {
        "details": "Leaves the contract without owner. It will not be possible to call `onlyOwner` functions anymore. Can only be called by the current owner. NOTE: Renouncing ownership will leave the contract without an owner, thereby removing any functionality that is only available to the owner."
      },
      "symbol()": {
        "details": "Returns the symbol of the token, usually a shorter version of the name."
      },
      "totalSupply()": {
        "details": "See {IERC20-totalSupply}."
      },
      "transferFrom(address,address,uint256)": {
        "details": "See {IERC20-transferFrom}. Emits an {Approval} event indicating the updated allowance. This is not required by the EIP. See the note at the beginning of {ERC20}. Requirements: - `sender` and `recipient` cannot be the zero address. - `sender` must have a balance of at least `amount`. - the caller must have allowance for ``sender``'s tokens of at least `amount`."
      },
      "transferOwnership(address)": {
        "details": "Transfers ownership of the contract to a new account (`newOwner`). Can only be called by the current owner."
      }
    },
    "version": 1
  },
  "userdoc": {
    "kind": "user",
    "methods": {},
    "version": 1
  }
}